{
  "contractName": "studentStorages",
  "abi": [
    {
      "inputs": [
        {
          "internalType": "uint256",
          "name": "",
          "type": "uint256"
        }
      ],
      "name": "studentList",
      "outputs": [
        {
          "internalType": "uint256",
          "name": "id",
          "type": "uint256"
        },
        {
          "internalType": "string",
          "name": "name",
          "type": "string"
        },
        {
          "internalType": "uint256",
          "name": "age",
          "type": "uint256"
        }
      ],
      "stateMutability": "view",
      "type": "function",
      "constant": true
    },
    {
      "inputs": [
        {
          "internalType": "string",
          "name": "_name",
          "type": "string"
        },
        {
          "internalType": "uint256",
          "name": "_age",
          "type": "uint256"
        }
      ],
      "name": "setStudents",
      "outputs": [
        {
          "internalType": "uint256",
          "name": "",
          "type": "uint256"
        }
      ],
      "stateMutability": "nonpayable",
      "type": "function"
    }
  ],
  "bytecode": "0x608060405234801561001057600080fd5b50610891806100206000396000f3fe608060405234801561001057600080fd5b5060043610610053576000357c0100000000000000000000000000000000000000000000000000000000900480637df221e914610058578063e425e0711461008a575b600080fd5b610072600480360381019061006d919061025e565b6100ba565b6040516100819392919061032a565b60405180910390f35b6100a4600480360381019061009f919061049d565b61017c565b6040516100b191906104f9565b60405180910390f35b600081815481106100ca57600080fd5b90600052602060002090600302016000915090508060000154908060010180546100f390610543565b80601f016020809104026020016040519081016040528092919081815260200182805461011f90610543565b801561016c5780601f106101415761010080835404028352916020019161016c565b820191906000526020600020905b81548152906001019060200180831161014f57829003601f168201915b5050505050908060020154905083565b600080600160008054905061019191906105a3565b9050600060405180606001604052808381526020018681526020018581525090806001815401808255809150506001900390600052602060002090600302016000909190919091506000820151816000015560208201518160010190816101f89190610789565b5060408201518160020155505060008054905091505092915050565b6000604051905090565b600080fd5b600080fd5b6000819050919050565b61023b81610228565b811461024657600080fd5b50565b60008135905061025881610232565b92915050565b6000602082840312156102745761027361021e565b5b600061028284828501610249565b91505092915050565b61029481610228565b82525050565b600081519050919050565b600082825260208201905092915050565b60005b838110156102d45780820151818401526020810190506102b9565b60008484015250505050565b6000601f19601f8301169050919050565b60006102fc8261029a565b61030681856102a5565b93506103168185602086016102b6565b61031f816102e0565b840191505092915050565b600060608201905061033f600083018661028b565b818103602083015261035181856102f1565b9050610360604083018461028b565b949350505050565b600080fd5b600080fd5b7f4e487b7100000000000000000000000000000000000000000000000000000000600052604160045260246000fd5b6103aa826102e0565b810181811067ffffffffffffffff821117156103c9576103c8610372565b5b80604052505050565b60006103dc610214565b90506103e882826103a1565b919050565b600067ffffffffffffffff82111561040857610407610372565b5b610411826102e0565b9050602081019050919050565b82818337600083830152505050565b600061044061043b846103ed565b6103d2565b90508281526020810184848401111561045c5761045b61036d565b5b61046784828561041e565b509392505050565b600082601f83011261048457610483610368565b5b813561049484826020860161042d565b91505092915050565b600080604083850312156104b4576104b361021e565b5b600083013567ffffffffffffffff8111156104d2576104d1610223565b5b6104de8582860161046f565b92505060206104ef85828601610249565b9150509250929050565b600060208201905061050e600083018461028b565b92915050565b7f4e487b7100000000000000000000000000000000000000000000000000000000600052602260045260246000fd5b6000600282049050600182168061055b57607f821691505b60208210810361056e5761056d610514565b5b50919050565b7f4e487b7100000000000000000000000000000000000000000000000000000000600052601160045260246000fd5b60006105ae82610228565b91506105b983610228565b92508282019050808211156105d1576105d0610574565b5b92915050565b60008190508160005260206000209050919050565b60006020601f8301049050919050565b60008160020a8302905092915050565b60006008830261063c7fffffffffffffffffffffffffffffffffffffffffffffffffffffffffffffffff826105fc565b61064686836105fc565b95508019841693508086168417925050509392505050565b6000819050919050565b600061068361067e61067984610228565b61065e565b610228565b9050919050565b6000819050919050565b61069d83610668565b6106b16106a98261068a565b84845461060c565b825550505050565b600090565b6106c66106b9565b6106d1818484610694565b505050565b5b818110156106f5576106ea6000826106be565b6001810190506106d7565b5050565b601f82111561073a5761070b816105d7565b610714846105ec565b81016020851015610723578190505b61073761072f856105ec565b8301826106d6565b50505b505050565b60008160020a8304905092915050565b60006107606000198460080261073f565b1980831691505092915050565b6000610779838361074f565b9150826002028217905092915050565b6107928261029a565b67ffffffffffffffff8111156107ab576107aa610372565b5b6107b58254610543565b6107c08282856106f9565b600060209050601f8311600181146107f357600084156107e1578287015190505b6107eb858261076d565b865550610853565b601f198416610801866105d7565b60005b8281101561082957848901518255600182019150602085019450602081019050610804565b868310156108465784890151610842601f89168261074f565b8355505b6001600288020188555050505b50505050505056fea264697066735822122092601b2b01d4dff99226c971611e30be2d300bda4742e913709b9196007fc30064736f6c63430008120033",
  "immutableReferences": {},
  "source": "// SPDX-License-Identifier: GPL-3.0\npragma solidity >=0.4.22 <0.9.0;\ncontract studentStorages {\n    struct Student {\n        uint id;\n        string name;\n        uint age;\n    }\n\n    Student[] public studentList;\n    function setStudents(string memory _name, uint _age) public returns (uint) {\n        uint index = studentList.length + 1;\n        studentList.push(Student(index, _name, _age));\n        return studentList.length;\n    }\n}",
  "sourcePath": "/Users/admin/Documents/lc-file/web3/my-first//kerwine/contracts/studentStorages.sol",
  "compiler": {
    "name": "solc",
    "version": "0.8.18+commit.87f61d96.Emscripten.clang"
  },
  "schemaVersion": "3.4.12",
  "updatedAt": "2023-03-02T13:58:42.830Z",
  "networkType": "ethereum",
  "devdoc": {
    "kind": "dev",
    "methods": {},
    "version": 1
  },
  "userdoc": {
    "kind": "user",
    "methods": {},
    "version": 1
  }
}